:020000040000FA
:10000000409F0020E1FB01002BF40300B5FB010041
:10001000B5FB0100B5FB0100B5FB010000000000CD
:100020000000000000000000000000007DF401005E
:10003000B5FB01000000000029F40100B5FB010040
:100040002DF50100FD3A04002DF501002DF501000C
:100050002DF501002DF501002DF501002DF5010014
:10006000C53A04002DF501002DF50100E33A040026
:100070002DF501002DF501002DF501002DF50100F4
:100080002DF501002DF501002DF501002DF50100E4
:100090002DF501002DF501002DF501002DF50100D4
:1000A0002DF501002DF501002DF501002DF50100C4
:1000B0002DF501002DF501002DF501002DF50100B4
:1000C0002DF501002DF501002DF501002DF50100A4
:1000D0002DF501002DF501002DF501002DF5010094
:1000E0002DF501002DF501002DF501002DF5010084
:1000F0002DF501002DF501002DF501002DF5010074
:1001000053B94AB9002908BF00281CBF4FF0FF317E
:100110004FF0FF3000F00CB8ADF1080C6DE904CEE3
:1001200015F0C8FBDDF804E0DDE9022304B07047F8
:10013000704700BF2DE9F00791E8F807B2E8021018
:100140005B1854EB0C04B2E802104D4156EB0C0660
:10015000B2E802104F4158EB0C08B2E8021059EB1C
:1001600001095AEB0C0A80E8F80780410130BDE82C
:10017000F00770472DE9F00791E8F807B2E80210A0
:100180005B1A74EB0C04B2E802108D4176EB0C069E
:10019000B2E802108F4178EB0C08B2E8021079EB5C
:1001A00001097AEB0C0A80E8F80780414042BDE87B
:1001B000F00770472DE9F007524290E87800B1E867
:1001C00080071740DB1918EA020854EB080419EA03
:1001D000020955EB09051AEA020A56EB0A0678C02D
:1001E00090E87800B1E8800717407B4118EA0208E0
:1001F00054EB080419EA020955EB09051AEA020A48
:1002000056EB0A0678C080410130BDE8F007704720
:100210002DE9F007524290E87800B1E880071740D6
:10022000DB1B18EA020874EB080419EA020975EBF3
:1002300009051AEA020A76EB0A0678C090E8780007
:10024000B1E880071740BB4118EA020874EB0804C4
:1002500019EA020975EB09051AEA020A76EB0A06A1
:1002600078C080414042BDE8F00770472DE9F001B9
:1002700052424FF0040890E8300091E8C000A31B00
:100280001340E41AF618EB1B1340ED1AFF1830C0A8
:10029000C0C1B8F10108EED1BDE8F001704700BF60
:1002A00000B592E8DC072DE9DC07B1E8805702B41D
:1002B000A7FB02510A95A8FB020BE7FB6310E9FBC1
:1002C00062B00B91A8FB0351EAFB6201E7FB64B546
:1002D000E7FB6605E8FB6615CDF830B0A9FB03B671
:1002E000EAFB6316ECFB6356E8FB640BE9FB641B5B
:1002F000EAFB645BECFB646B0D90ACFB0230059C8D
:10030000EEFB6250E9FB6460EAFB64B0E7FB64313A
:10031000E8FB6451069CE8FB6461E9FB64B1EAFB1D
:1003200064010E93A7FB0432079CE7FB6462E8FBC1
:1003300064B2E9FB6402EAFB6412049CE9FB6453C7
:10034000EAFB6463089CE7FB64B3E8FB6403E9FB36
:100350006413EAFB64230F955DF8049B99E800069B
:10036000DDF80080A9FB0854EAFB68B4DDF81080D2
:10037000ECFB6804EEFB6814E9FB6824EAFB6834D4
:10038000DDF80480EEFB6865E9FB68B5EAFB68050B
:10039000DDF81480ECFB6815EEFB6825E9FB683599
:1003A000EAFB68450F96DDF80880AEFB0876E9FBAE
:1003B0006806EAFB6816DDF81880ECFB6826EEFBA1
:1003C0006836E9FB6846EAFB6856DDF80C80ECFB12
:1003D00068B7EEFB6807E9FB6817EAFB6827DDF8FA
:1003E0001C80ECFB6837EEFB6847E9FB6857EAFBCB
:1003F000686708B000BD00BF2DE9F14F87B0FFF777
:100400004FFFDDF81C8008F1200888E8FF00FFBCE2
:1004100087E87F08BDE8F08F00B591E89857A3FB07
:1004200003520195A3FB0401E3FB6420E3FB671087
:100430000292A3FB0752E3FB6802E4FB6415E3FBB3
:100440006805E3FB69250391A4FB07B6E3FB692676
:10045000E3FB6A56E4FB670BE4FB682BE3FB6A5B98
:10046000E3FB6C6B0490A4FB0810E4FB6950E3FB16
:100470006C60E3FB6EB0E7FB6721E4FB6951E4FBD2
:100480006A61E3FB6EB1E4FB6E010592A7FB0832E3
:10049000E4FB6A62E4FB6CB2E4FB6E02E7FB6E1203
:1004A000E7FB6853E7FB6963E4FB6CB3E7FB6C03B2
:1004B000E7FB6E13E8FB6E230695A7FB0954E7FBE9
:1004C0006AB4E7FB6C04E8FB6C14E8FB6E24E9FB00
:1004D0006E34E8FB6865E7FB6AB5E8FB6A05E8FB94
:1004E0006C15E9FB6C25E9FB6E35EAFB6E4507965A
:1004F000A8FB0976E8FB6A06E9FB6A16E9FB6C26AD
:10050000EAFB6C36EAFB6E46ECFB6E56E8FB69B71D
:10051000E9FB6907E9FB6A17EAFB6A27EAFB6C3724
:10052000ECFB6C47ECFB6E57EEFB6E6700BD00BF4B
:100530002DE9F14F87B0FFF76FFFDDF81C8008F160
:10054000200888E8FF00FFBC87E87F08BDE8F08F3F
:1005500030B44FF0000310F8014B11F8015B013A81
:1005600084EA050443EA0403F5D1A3F101034FEA49
:10057000D37030BC704700BF4FF0000310F8012B60
:10058000013943EA0203F9D1A3F101034FEAD37021
:10059000704700BF30B411F8014B12F8015B6C409A
:1005A00000F8014B013BF6D130BC70472DE9F00754
:1005B00091E8F807B2E802105B1854EB0C04B2E8BB
:1005C00002104D4156EB0C06B2E802104F4158EBB9
:1005D0000C08B2E8021059EB01095AEB0C0A8941E8
:1005E000B3F1FF3374F1FF3475F1FF3576F1000696
:1005F00077F1000778F1000879F101097AF1FF3A03
:1006000051F100015B184C414D4156F1000657F184
:10061000000758F1000859EBD1795AEB010A80E83C
:10062000F807BDE8F00770472DE9F00791E8F807F3
:10063000B2E802105B1A74EB0C04B2E802108D41B0
:1006400076EB0C06B2E802108F4178EB0C08B2E8AA
:10065000021079EB01097AEB0C0A89415B184C41D5
:100660004D4156F1000657F1000758F1000859EBCB
:10067000D1795AEB010A80E8F807BDE8F007704726
:1006800018EB040859EB05095AEB060A5BEB070B5C
:100690005FF0000C4CF1000C18EB050859EB060953
:1006A0005AEB070A5BEB070B50EB0C005FF0000CFA
:1006B00051EB0C0152EB0C0263414CF1000CB8EB16
:1006C000070879F100097AF1000A7BEB040BA841D5
:1006D000B141A241B3416CF1000CBBEB050BB04141
:1006E000B941AA41BB416CF1000C6FEAEC74B8EB64
:1006F000040879EB04097AEB040A7BF1000B70F132
:10070000000071F1000172EBD472A3416CF1000C96
:1007100018EBEC7859EBEC795AEBEC7A5BF1000BC7
:1007200050F1000451F1000552EBDC7653EBEC770D
:100730004CF1000C18EBEC7059EBEC715AEBEC72CD
:100740005BF1000354F1000455F1000556EBDC7633
:1007500057EBEC77704700BF2DE9F14F87B0FFF7FB
:100760009FFDDDF81080DDF81490DDF818A0FFF78C
:1007700087FFBDE8000FFFF783FF03B05DF8048B30
:1007800088E8FF00BDE8F08F2DE9F14F87B0FFF753
:1007900043FEDDF81080DDF81490DDF818A0FFF7B7
:1007A0006FFFBDE8000FFFF76BFF03B05DF8048B30
:1007B00088E8FF00BDE8F08F1FB51A4C207A8DF84D
:1007C0000100E0798DF80000A079ADF804006079AF
:1007D000ADF8020068460EF0D7FA08B1A7211CE078
:1007E000E068029002A80EF0E5FA08B1AB2114E02F
:1007F0000D480068039003A819F049FA08B1AF2129
:100800000BE0607E0EF008FB08B1B82105E0207E09
:100810000EF0FCFA002803D0B921032000F034FACE
:100820001FBD0000601A0020940D00002DE9FF4755
:1008300081460C46C01C90461146002220F0030061
:10084000CDE900020292039222788DF805206278A9
:100850008DF80620A2788DF80720E2788DF8082020
:1008600022798DF80920A27D8DF80A20E27E8DF88C
:100870000C20227F8DF80D201F4A527912B1227967
:100880008DF80B2001B1002001A900F03BFC00997C
:100890000026084400902078617835460844C7B2A5
:1008A00008E0237AE279A179607916F0B7F96D1C36
:1008B0000644EDB2BD42F4D30098C01C20F0030002
:1008C0000090B8F1000F00D000203246394600F009
:1008D0006DFE00994246084400902146684600F0AB
:1008E0000DF80098C01D20F00700009004B0A0EBA8
:1008F0000900BDE8F087000028000020F8B5044694
:10090000887816460D4670B12068C01C20F00300A0
:1009100020606B8AEA78A97806B1002000F0F8FE22
:10092000216808442060494FF87898B1287C88B144
:10093000387908B1FF2200E025222068C01C20F091
:1009400003002060297C06B1002000F075FF2168BB
:10095000084420603E48036873B1287960B120687C
:10096000C01C20F0030020602A7D297906B10020F8
:100970009847216808442060364802686AB1687D5B
:1009800058B12068C01C20F003002060697D06B1CA
:10099000002090472168084420602F48D0F800C00C
:1009A000BCF1000F11D0A87D78B12068C01C20F0E8
:1009B00003002060697E00912B7EEA7DA97D06B14F
:1009C0000020E047216808442060787978B12879D0
:1009D00068B12068C01C20F003002060AA7E29793D
:1009E00006B1002000F062FF216808442060687FA3
:1009F0004FF48C7768B12068C01C20F003002060A1
:100A0000CEB1697F00203A4616F02BF921680844E0
:100A10002060A87F00280DD02068C01C20F00300B3
:100A200020606EB1A97F00203A4616F01AF92168BD
:100A300008442060F8BD10F095FE697F2068E2E769
:100A400010F096FEA97F2068EEE700002800002045
:100A5000340000203C0000203800002010B528B1F0
:100A6000142204491AF00DFB002010BD6FF0150090
:100A700010BD0000B80D00002DE9F0416FF02C060C
:100A8000002871D13B4C607810B1B011BDE8F08105
:100A900029B36FF01500002AF8D0374B0E299D7846
:100AA00062D2DFE801F061070A0D1D203E462649AB
:100AB0004C512B30107818704AE01078587047E08D
:100AC00091780029E2D0D1780029DFD011781B2954
:100AD000DCD351781B29D9D31068C3F8050037E05F
:100AE0001068D86034E01178DA789142CED39970EA
:100AF0002EE01178A942C9D8D97029E01178A9420D
:100B0000C4D8997524E011780029BFD05178F9290B
:100B1000BCD80029BAD01088A3F81700907858766E
:100B200016E0E17811B111780229AFD3107818746A
:100B30000EE0108858820BE01078187108E01178E8
:100B40000229A3D3197503E0117808299ED8597595
:100B5000012209490020FFF769FEB0F5803F05DB5F
:100B60006FF00B0092E7FFE730468FE70121A1709D
:100B70008CE7000028000020601A002010B5074C08
:100B8000607820B10EF0ECFC207814F0F3FC00F05B
:100B9000DFFE00F0B7FF0020607010BD28000020CD
:100BA00070B50C46050002D00CB1600702D06FF0A2
:100BB000150070BD00F034F9A8B1284614F0A0FC6F
:100BC0000A4D00220A4928702046FFF72FFE19F02F
:100BD00038FF002128780EF09FFCFFF7EDFD012083
:100BE0006870002070BD4FF0FF3070BD28000020FD
:100BF000601A002030B589B005000CD014F026FC36
:100C00004FF0FF3420B114F0B9FAB0F5FA7F05D9EE
:100C1000204609B030BD6FF01500FAE7154C1648B4
:100C2000A56000F03DFA00206070A070E0702071B7
:100C300060710146202268461AF09DFA20220F4971
:100C400068461AF01EFA202269460D481AF019FA71
:100C5000EFF3108472B600F089FE0A4800F05EFFE0
:100C600018B1C521032000F00FF804B962B60020C6
:100C7000CFE7000028000020B9070000980D000011
:100C8000601A00204D0E00000EB572B6154A956828
:100C9000DDB1002203466E460A2403E0B0FBF4F007
:100CA000521CD2B20028F9D1B0540AE0D8B2B0FB3D
:100CB000F4F7B3FBF4F304FB1700521ED2B230304A
:100CC000B054002AF2D13046A847BFF34F8F0648F0
:100CD0000168064A01F4E06111430160BFF34F8FE0
:100CE00000BFFDE7280000200CED00E00400FA053D
:100CF000064810B581784078014302D04FF0FF30AC
:100D000010BD0EF03DFC002010BD000028000020AA
:100D1000074810B581784278114302D04FF0FF3078
:100D200010BD0121C17001710EF03CFC002010BD0E
:100D300028000020064810B581784078014302D091
:100D40004FF0FF3010BD19F0A2F9002010BD0000D7
:100D500028000020064810B581784078014302D071
:100D60004FF0FF3010BD0EF02FFC002010BD000032
:100D700028000020064810B581784078014302D051
:100D80004FF0FF3010BD19F0C4F9002010BD000075
:100D9000280000200100000001010100001B1B03CE
:100DA000020000004C1D000003001F0002000001B3
:100DB0004900010000000000D80C2D2F36AEE25C87
:100DC0008026804C3F4D16535096C773054A10B588
:100DD000526812B1BDE81040104792210420FFF77D
:100DE00053FF0000801A0020054A10B5126812B1A6
:100DF000BDE8104010478C210420FFF745FF00009C
:100E0000801A0020054A10B5926812B1BDE8104062
:100E1000104798210420FFF737FF0000801A0020B8
:100E20000548016829B1416819B1806808B10120FD
:100E30007047002070470000801A002002490DC84A
:100E400081E80D0000207047801A0020F8B5124C90
:100E50000026256811E00098022802D003280CD152
:100E600006E0206810B10020266005E028210CE093
:100E7000206868B101202660A847684600F014FE8B
:100E80000028E8D0052805D035210420FFF7FCFE16
:100E90002D21FAE7F8BD0000400000202DE9FC41BB
:100EA000254E0546001D06F584773060387858B128
:100EB000BA783C46791C2846921C1AF0E2F80020C9
:100EC00020700420BDE8FC811B4802F0C7FD0446E9
:100ED000022804D0042C07D0082C27D02AE0164979
:100EE000284614F077FE25E030780A2804D1052141
:100EF0003E2000F023F860B10F49284614F0CFFEE1
:100F00000028D3D0A978287800F018F80028CDD090
:100F100010E0B088ADF8000001A9684615F062FB4A
:100F20000028C3D0A7210820FFF7AEFE02492846BB
:100F300014F07EFE2046C5E78C1A002070B50C46E2
:100F4000054600F04BF8002802D03E2D01D00120CC
:100F500070BD122C06D106480178022902D04078D3
:100F60000028F5D02046BDE8704000F049B80000E8
:100F70001404002001494870704700001404002048
:100F800070B50A7882703AB3012A25D8132303700A
:100F900000230AE001EB430400EB4305A678EE7062
:100FA0006488240A5B1C2C71DBB29342F2D30023C9
:100FB0000BE000BF01EB430500EB43042E796671A3
:100FC000AD882D0A5B1CA571DBB29342F2D30121DF
:100FD00001EB8200C0B270BD002070BD402803D27A
:100FE000401EC1B2054805E0FF2805D04038C1B217
:100FF0000248083015F0C6B9012070474C000020A7
:10100000401EC1B2014815F0BDB900005C000020CF
:1010100010B5074A0168064B91614068D0611C68B1
:101020001832A143116059688843506010BD000018
:1010300044000020064A016891604068D060083290
:1010400041F48C211160034908435060704700004F
:1010500044000020F807400207484FF0FF3100220B
:101060000160C90C416000F108011F200A604A605C
:101070000831C1E9000270474C00002010B5FFF7AD
:10108000EBFF0020FFF776FF18F085FF04460348CA
:10109000006800B18047204610BD000064000020B9
:1010A00001490860704700006400002002210180AF
:1010B000418000210171D821417142F60C51C1805B
:1010C00001498160002070472F36AEE210B5092833
:1010D00004D340F203211720FFF7D6FD0149085C35
:1010E00010BD0000981C0020054A10B5515C8142DB
:1010F00004D840F2B2211720FFF7C6FDC0B210BDE0
:10110000981C00202DE9F84304468A784878024468
:10111000FF2A02D940F2AD1120E00A78824202D9BA
:1011200040F2B1111AE00094DCB1002691F8018080
:1011300091F802C0087A0CEB0802814610444B7A01
:101140004A791844C5B2AA4200D91546C878A842BF
:1011500000D90546A70706D04FF4E5711720FFF721
:1011600093FD0126E2E71A4F87F8008087F801C057
:10117000B8700879F8703A7188797871C879B8715F
:1011800087F807903B723146684600F01BF9002152
:101190000B460098C01C20F00300009066B907EBD6
:1011A00081021063002005E0D2F830C04CF82030F6
:1011B000401CC0B2A842F7D30098491C00EB850040
:1011C000C9B200900929E4D3001BBDE8F8830000F0
:1011D000981C002070B50446857900F02FF902466E
:1011E0000C48E17900EB85000EE0036B53F82130E9
:1011F00043B14A1CE271A180006B50F821002060CD
:10120000002070BD491CC9B29142EED3E1710520A6
:1012100070BD0000981C0020F0B4054611B10020FC
:1012200038B901E00120FBE7012902D0002038B9DC
:1012300001E00120FBE7022902D0002038B901E0DB
:101240000120FBE7032902D0002038B901E001208A
:10125000FBE7042902D0002038B901E00120FBE7B8
:10126000072902D0002038B901E00120FBE7082956
:1012700002D0002038B901E00120FBE7052902D0A7
:10128000002078B901E00120FBE706290AD0002000
:10129000002826D0154F00230129387804D00829CA
:1012A00004D005E00120F3E7034601E07A788318D3
:1012B00007EB810600224FF6FF747F5C0AE0D0182E
:1012C000D6F830C080B25CF820C0BCF1000F04D06A
:1012D000521C92B29742F2D820462880A04202D1F6
:1012E0000020F0BC7047F0BC00F034B8981C00201F
:1012F0002DE9F0410746A0F57F400C4643F2020677
:10130000FF3820D0092C02D30720BDE8F0813846F1
:1013100000F048F8050016D00C48294650F8242063
:10132000384690470A48002100EB8406306B40F8AD
:101330002710204600F078F802462946F06815F09C
:1013400029FC0020E1E73046DFE7000080140000C0
:10135000981C002070B50E46054615F055FC58B196
:101360000F4800EB8604206B50F8250038B14FF48D
:10137000C5711720FFF788FC40F28911F9E7E06892
:1013800000280BD0304600F04FF80146E06815F019
:10139000A9FB002802D0216B41F8250070BD000098
:1013A000981C002070B50C46054615F02DFC002851
:1013B00005D0034800EB8400006B50F8250070BD99
:1013C000981C00202DE9F843164F88460546002456
:1013D0002868C01C20F003002860204600F024F894
:1013E000395D4143B8F1000F01D0002000E02868CA
:1013F000009018B100261EB1002002E00126FAE795
:10140000684615F0A0FB1EB907EB8401009ACA607C
:101410002968641C0844E4B22860092CD8D3BDE8CC
:10142000F8830000981C0020034931F810004FF6A3
:10143000FC71C01C08407047A41400000F4B1878C2
:1014400059780844197A0844C2B29878824200D385
:101450001046D978884200D208461A79904200D2C4
:1014600010465979884200D208469A79904200D2B3
:101470001046D979884200D208467047981C00204F
:10148000B38F0100DF8A01006D8101002DA90100E9
:101490001BAA01000BAA010021AA01002B90010048
:1014A000059001007803080460019000A800300155
:1014B00018006800C80000002DE9FF4F244C0646C4
:1014C00081B020689A46934658B1017AB14203D957
:1014D000406850F8260040B143F2020005B0BDE874
:1014E000F08FA5211820FFF7CFFB1946029815F0C1
:1014F000AEFB804658460E9915F09FFB054608EB5B
:101500000500001D87B22068A1463946006815F025
:10151000E9FA04001AD0678025802946201D0E9D17
:1015200007465A460923009515F052FA208841468D
:1015300038440A23029ACDF800A015F049FAD9F8E8
:101540000000406840F826400020C7E70420C5E7B7
:101550006800002070B5144C23688BB1197A814261
:1015600012D95A6852F8201071B1002542F8205063
:101570004A88186815F00EFB216800200A7A0CE0F2
:10158000C6211820FFF780FB43F2020070BD4B68B4
:1015900053F8203033B9401CC0B28242F7D80868F3
:1015A00015F0EDFA002070BD680000202DE9F04133
:1015B0000D46040090464FF0000606D00027A00715
:1015C00005D086211820FFF75FFB0127F7E7CDB193
:1015D0001146002015F0B7FA0C3000EB85068FB9E4
:1015E0000A4F04F10C00AA003C602572606000EB19
:1015F000850020600021606819F0BDFD4146386813
:1016000015F0A1FA3046BDE8F08100006800002026
:1016100070B5084D286800280AD0002404E0204650
:10162000FFF798FF641CE4B22868007AA042F6D85D
:1016300070BD000068000020094910B50246096825
:10164000002049B10B7A934205D9496851F822101C
:10165000002900D0081D10BDEC211820FFF714FB55
:10166000680000200A4910B502460968002059B1F7
:101670000B7A934207D9496851F82210002902D009
:1016800031F8040B084410BDFA211820FFF7FCFACA
:10169000680000202DE9F0411C4E456804460022F8
:1016A000A1B10120607070888308002004EB400124
:1016B00004EB80060A830B8400FB03517160211840
:1016C000401C0A750428F1D3BDE8F0816270002047
:1016D00004EB40010A830A8404EB80014A6021186C
:1016E000401C0A750428F3D3708815F04FFB074699
:1016F000708815F052FB656020842918A16067840A
:10170000E560A0842161E784DEE700006C00002032
:101710002DE9F04768B100261144DFF89C80CFB274
:10172000002488F80070810705D04E210920FFF7BA
:10173000ABFA0126F0E71F2B04D84FF6FF7101EA40
:10174000830509E05900FF2B0CD903F1FF02B2EB2E
:10175000430F00D211468DB24FF6FC71ED1C0D40C7
:1017600036B109E07C22B2EB430FF4D37C21F2E7DF
:10177000C8F80400A8F8025007EB870104EBC10287
:1017800000214FF001090FE05EB9D8F8044001EBE9
:10179000810300EB020C04F8339004EBC303C3F89D
:1017A00004C0491C2A44C9B2B942EDD3D21D22F06B
:1017B0000700BDE8F08700006C00002070B51148FC
:1017C0000024214602780CE0456801EB810315F8FE
:1017D000333023B101EB810105EBC10403E0491C67
:1017E000C9B29142F0D344B10025A5700121204631
:1017F000FFF750FF2570204670BDA9210920FFF793
:1018000043FA00006C000020044810B540888408AA
:1018100015F0C3FA844200D3204610BD6C000020AE
:10182000014840787047000074000020014840687B
:1018300070470000740000202DE9F8430C4607466D
:1018400016462E2110460D46224615F00AF980460E
:1018500057B13846414632462B46009415F0B8F849
:1018600003484760047046704046BDE8F8830000B6
:10187000740000200248427801784068FFF7DCBF1E
:101880007400002010B5084C39B10621FFF72CFC7C
:10189000E288E16800FB021010BD0521FFF724FC7F
:1018A0006288A168F6E700007C000020F8B50E46CB
:1018B000044617460321F72015F030FB4FF6FC7164
:1018C000C01C00EA0105C4B1A00703D07121192092
:1018D000FFF7DAF90A48C460C58000240BE0012153
:1018E0002046FFF7CFFF0323F7222946009715F084
:1018F0000FFB641CA4B2B442F1D306FB05F0F8BDA3
:101900007C00002030B50D4901204860821EC1F8DE
:1019100008230B4988600023C1F80032C1F808236E
:10192000084C2360251D28608860C1F808232360C7
:10193000286006490448086030BD000000E000400F
:1019400000F0004000F500400000F63F08F50140BF
:1019500010B5FFF7D7FF15F001FB034901480860F8
:1019600010BD00000000F63F08F5014010B5FFF77C
:10197000C9FF15F0F3FA00F087F80549034808603D
:1019800000F0B8F8BDE8104000F0DCB80000F63F09
:1019900008F501402DE9F84F8246384819F08FFAD2
:1019A000DFF8D8B028B101260BF10100FF2101704A
:1019B00000E000264FF48075314C4FF000082F1DD9
:1019C00001216160C4F80081C4F80481C4F804A551
:1019D0002160DFF8B0901CE0D9F80000C00618D5EF
:1019E0000E2015F0CAFAEFF31080009072B60321B2
:1019F0002046C4F80413294615F0CCFA30B939460C
:101A0000204615F0C7FA08B919F0F0FA009800B9A5
:101A100062B62946204615F0BDFA28B93946204657
:101A200015F0B8FA0028D7D03946204615F0B2FA9A
:101A30000028C5D106BB9BF801108DF80010009955
:101A400000919DF8001009B1012500E000250BF17F
:101A5000010080F800800320C4F80803C4F8048162
:101A6000C4F800810E2015F088FA044819F03EFAF7
:101A700015B11120BDE8F88F0020FBE71604002007
:101A800000E0004010ED00E010B5064819F02AFA19
:101A900018B127211D20FFF7F7F8024800214170F7
:101AA00010BD00001604002070B511490A68EAB1A3
:101AB00000231D4601244A68521C4A600C2A00D3A8
:101AC0004D600E7904FA06F20E6816420BD0EFF361
:101AD000108372B60C6894430C6003B962B649680F
:101AE0000160002070BD5B1C0C2BE4D3052070BD91
:101AF0008C00002002480021016041607047000016
:101B00008C00002010B5044C2078FF2803D013F07F
:101B100031FDFF20207010BD0000002010B5084CE2
:101B2000617809B10F2010BD13F0EAFC2070FF2886
:101B300001D0002010BD73211F20FFF7A5F8000081
:101B4000000000200149002048707047000000207C
:101B500005498A8E824218BF7047002081F8320002
:101B60004FF6FF70888670474C2200200648074ACF
:101B7000818E5288914205D190F8320000281CBF16
:101B800000207047012070474C22002000040020F4
:101B90000149488070470000000400200848094AB5
:101BA000818E5288914209D14FF6FF71818610F8DB
:101BB000321F19B1002101700120704700207047C9
:101BC0004C22002000040020074901F1320091F866
:101BD0003220012A04BF002070470122027003480E
:101BE00000888886104670474C22002000040020A0
:101BF0000749084B8A8E5B889A4206D191F83220B9
:101C0000002A1EBF016001207047002070470000BD
:101C10004C2200200004002009498A8EA2F57F434F
:101C2000FF3B03D0002101600846704791F8322045
:101C30000349012A1ABF01600120002070470000FB
:101C40004C22002001490880704700000004002059
:101C50000549002081F832004FF6FF70888603495D
:101C600008804880704700004C22002000040020BB
:101C70000549002081F832004FF6FF70888603493D
:101C800008804880704700004C220020000400209B
:101C90000A4A10B1012807D00EE0507860B1D2F89E
:101CA00002000860D08804E0107828B190680860CD
:101CB0009089888001207047002070471804002018
:101CC000094A012340B1012818BF70471370086802
:101CD000906088889081704753700868C2F802004D
:101CE0008888D0807047000018040020064910B191
:101CF000012803D006E0487810B903E0087808B15D
:101D0000012070470020704718040020014908771F
:101D100070470000FA1800200148807870470000E2
:101D2000940000200148C078704700009400002013
:101D300070B5094C06460D46207818B1D0212720F1
:101D4000FEF7A2FF0549002008770121044815F09D
:101D500027FFC4E90B6570BD94000020FA1800202D
:101D6000C8180020014901204871704794000020E4
:101D70002DE9F84FFD4DDDF828C02C78002C6CD1F2
:101D8000002A1CBF002BBCF1000F66D0C5F81CC098
:101D9000C5E90F014FF00009C5E9052385F8059055
:101DA00085F8049085F8029085F8019085F80390F5
:101DB000DFF8BC83A5F80C90A5F80E90D8F80400C5
:101DC00000F1A80604460EF073FB0DF055FE94F9E1
:101DD00072000EF009FC206A0EF070FEA0690EF091
:101DE00063FE96F833000EF0A3FE98F8000000287A
:101DF00038D0042013F096FC616941F64C508142C2
:101E000028BF962003D201200EF036FE4D200EF0A2
:101E100069FAD8F8040090F8F802002818BF0EF00C
:101E200051FA94F86F1001200EF09AF8002808BFBC
:101E3000BDE8F88FCF480EF0D3F92088FFF712FCE9
:101E400068632088FFF7F8FBA86394F87B008DF89F
:101E500000009DF8000080BB1DE040F245112720E6
:101E6000FEF712FF032013F05DFC616941F64C5050
:101E7000814228BF962003D201200EF0FDFD4D20A7
:101E80000EF030FA94F86E1000200EF069F8002879
:101E9000D0D1BDE8F88F606F78B1B6F84A00B18A4A
:101EA00088420AD1B4F8781001220844A6F84A0002
:101EB00094F87A00616F12F0FBF806F18800DFF801
:101EC000B8A20FC88AE80F00D6F89800CAF819001F
:101ED000D6F89C00CAF81D00D8F80400012700F1CC
:101EE000A80290F8C51026291EBF272992F81EC007
:101EF000BCF1260F0BD04FF008024FF0020321294E
:101F000018BF22292ED0BCF1240F52D081E098F8BE
:101F10000010002990F86E1013D090F8D603002816
:101F20007BD0082918BF042970D0082818BF0428BE
:101F30006CD0012918BF012857D000BF4FF0020113
:101F40006BE090F83203002867D0082918BF0429F5
:101F50005CD0082818BF042858D0012918BF0128D0
:101F600043D0EBE7BCF1240F23D098F80010E9B37D
:101F700090F86E1090F8660110F0040F18BF10462C
:101F80000CD0082918BF042940D0082818BF0428FD
:101F90003CD0012918BF012827D0CFE710F0010F4E
:101FA00018BF3846EDD110F0020F18BF1846E8D11F
:101FB00033E098F80010C9B190F86E1090F866C13F
:101FC00090F867000CEA000010F0040F18BF1046EC
:101FD00010D0082918BF042918D0082818BF0428D1
:101FE00014D0012918BF0128A8D100E011E04FF05A
:101FF000010112E010F0010F18BF3846E9D110F0CE
:10200000020F18BF1846E4D107E0FFE74FF00801C0
:1020100003E090F86E100429F8D0A08F11F00C0F97
:1020200018BF4FF4296015F083F9218F814238BF22
:1020300008464E49887194F86F10B4F8420096F83B
:1020400023B0B4F84050082938D015F071F900BF1A
:10205000BBF1000F04BF001D80B2854238BF284687
:10206000C5B2DFF808B18BF8075002F015F810B1CF
:102070002B2D98BF2B252A468BF8085098F8000086
:1020800000B396F82300E8B38AF81870D6E9200167
:10209000CAE9040194F86F100120012908BF002348
:1020A00043D0022908BF01233FD0042908BF0323DE
:1020B0003BD0082908BF022337D027E0042115F0C0
:1020C00037F9C5E796F8220058B38AF81870D6E9B0
:1020D0001E01CAE90401616941F64C5081422CBFDE
:1020E0000020042094F86E10012908BF002312D0AC
:1020F000022908BF01230ED0042908BF03230AD0F8
:10210000082900E016E008BF022304D040F2224173
:102110000620FEF7B9FDFB221749CDF800900DF01F
:10212000BBFB012000F040FC07E01349CDF8009014
:102130000DF0B2FB012000F0D9FB10480068032825
:1021400018BF0B281ED0CAF85A90CAF85E90CAF879
:102150006290AAF866900A48B18A4180218801807D
:1021600096F833100171BDE8F88F0000940000204C
:10217000D0000020B02B0000A01800205015004017
:10218000FA18002040F202214FF02700FEF77CFDF4
:102190002DE9F041204D06460F461E48696A82B07F
:1021A000406891F8018000F1A80416F0020F15D0E4
:1021B000A86A48B36A89D21C18F063FFA86A6862EB
:1021C00001AA6946A86B14F071FB009814F008FB93
:1021D000386001224146A86B14F0B9FA16F0010FDD
:1021E00004BF02B0BDE8F081D4E92002411C42F1F5
:1021F0000000C4E92010207E01280CBF002001202F
:10220000207602B0BDE8F08140F266412720FEF75B
:102210003BFD0000D0000020940000200248C0894F
:10222000C0F380207047000094000020044800782C
:1022300000281CBF0C207047002002490877704717
:1022400094000020FA18002038B51A48017800F1EF
:102250003C0449B12178007849B102280ED040F2FF
:102260001E212720FEF710FD00F0A0FA0BE0012848
:1022700009D040F21A212720FEF706FD6068D0F849
:1022800010030DF0C3FF606890F87B108DF800100C
:102290009DF80010002918BF38BD416F002908BF04
:1022A00038BD90F87A00BDE838400022114611F0A0
:1022B000FFBE000094000020002281B04A702E234F
:1022C0000B700E4B0272D3F868C0C1F804C0D3F88B
:1022D0006CC0C1F808C0D3F870C0C1F80CC0B3F826
:1022E00074C0A1F810C090F808C08DF800C09DF827
:1022F00000C0BCF1000FE5D101B07047A01800206C
:10230000012984BF0120704770B51B4C0546A169A7
:10231000884700282CD0207950BB04F13C0001787C
:10232000002908BF012D01D021B31DBB134802783D
:1023300012F0100F06D1E06A007810F0100F08BFFD
:10234000012001D04FF00000A36A23B9638913B1C3
:1023500012F0100F0CD000291CBF217B11F0020FCE
:1023600003D0216AC978022904D0A189084301D089
:10237000012070BD002070BD94000020A40000204A
:102380002DE9F34FDFF8008383468BB0D8F80400C3
:102390004FF0000AA8F13C0400F1A8078DF814A042
:1023A000CDF818A020785646D146022804D040F235
:1023B000EA412720FEF768FCA07B10F0400F07D110
:1023C0004020626900219047E08940F04000E081B0
:1023D00097F82300BBF1000F00F0D380A0B10DF0FF
:1023E00089FB0DF063FB78B9606A417861B10078D0
:1023F000397EC0F3C000884206D10120607000F031
:10240000D5F90DB0BDE8F08F606A4178618100298F
:1024100008BFA66203D0A06B14F031FBA062E08974
:1024200040F48070E081606AF97D0078C0F380003C
:10243000884208BF4FF0010A47D0D8F8040006A927
:1024400000F1A80590F8BE0000283AD002280BD170
:10245000606B14F054F900284BD0D5E91E01401CE4
:1024600041F10001C5E91E01AE7598F80000002891
:102470001CBFA87C002809D0AE74A289314642F066
:102480001002A28162694FF010009047687C90B101
:102490006E74FFF783FB90B3A289082042F0080214
:1024A000A281626900219047D5E91E02411C42F1D8
:1024B0000000C5E91E10E87D01280EBFEE75012061
:1024C000E875E08940F48060E081606A397E0078D8
:1024D000C0F3C000884222D101F0DEFDB8B1616ACC
:1024E000E0790A7802F00302012A18BF022A0BD011
:1024F0000DE040F2E3314FF02700FEF7C5FB40F25C
:10250000FA312720FEF7C0FB4978814203D805A89D
:1025100000F090F903E0207940F01000207197F866
:10252000220000283FD098F80010D8F804000029B5
:102530000CBF0122002255490A76D7E91E23C1E9C2
:102540000423416941F64C52914234BF4FF0040CD0
:102550004FF0000C90F86E00012808BF00231CD03B
:10256000022808BF012318D0042808BF032314D071
:10257000082808BF022310D040F222410620FEF7AF
:1025800083FB002818BF0DF0AFFAA078401CA070A4
:10259000E08940F40070E081C1E7FB223B496046DE
:1025A00000960DF079F90C98002520B9A17801204A
:1025B000FFF7A6FE18B10EF065FA012502E0002033
:1025C00000F0F2F99DF81400C0B1616A48780090FB
:1025D000A06AD0B16289D21C18F053FDA06A606273
:1025E00009AA08A9A06B14F061F9089814F0F8F88A
:1025F00081460122A06B009914F0A9F8B98A2448F9
:10260000BAF1000F13D029B10DE040F26641272046
:10261000FEF73AFB98F8001029B1C188002904BFE1
:102620000189002903D0418901F101014181BBF1F8
:10263000000F07D0C188491CC180A670124801F064
:10264000D9FF02E00189491C0181069840B114F0CC
:10265000C7F8D8F80410401C06720E2201F0C4FB23
:10266000B9F1000F08D0D8F8041009F1080006707D
:102670002A22484601F0B8FB002D18BF00F096F85A
:102680000DB0BDE8F08F0000D0000020A0180020A1
:10269000FA1800202DE9F84F424E8346A6F13C057A
:1026A00070688A4600F1A8042878012804D040F216
:1026B00075412720FEF7E8FA207C00274FF001093A
:1026C00068B12774AA89394642F00402AA816A696E
:1026D000042090473078002818BF84F81290296AA7
:1026E0004FF00308087838EA00000DD1A07DA0B9AA
:1026F000AA89022042F00202AA816A699047286AE8
:10270000007838EA000008D0286A407800280EBF18
:1027100084F816900220A07501E084F8168094F8E1
:10272000230000282CD031782A7A706800290CBF49
:102730000121002181F001031B490B76D4E9203CE3
:10274000C1E9043C90F86F004FF0010C012808BF6C
:10275000002310D0022808BF01230CD0042808BF92
:10276000032308D0082808BF022304D040F22241E6
:102770000620FEF789FA0C49604600970DF08CF8A8
:102780003AEA0B0004D000210846FFF7B9FD18B162
:10279000BDE8F84F00F00AB8BDE8F84F002000F09F
:1027A000A5B80000D0000020A018002010B50DF042
:1027B0006DFA0DF061F9114C00216269E0899047D2
:1027C0000F48017F99B1A0F15A01D1F85A208A66C9
:1027D000D1F85E20CA66D1F862200A67B1F8662097
:1027E000A1F87420242207491D3001F059FBE26949
:1027F0002179607890470020207010BD940000205F
:10280000FA180020B9220000084810B50078022804
:1028100004D040F24D212720FEF736FA044901206A
:102820000873BDE81040FFF7C1BF0000940000200E
:10283000FA18002070B52649264C0126496801F196
:10284000A805616A0A7802F00302012A18BF022A69
:102850000ED0032A23D12E74E289304642F400625E
:10286000E281A28942F00102A2816269904716E0EA
:102870004978A1B1E28942F40062E281A26A002AA9
:1028800008BF70BDFB291DD86179002908BF0670FB
:1028900005D06269BDE87040202000211047287EE5
:1028A000012806BF002028762E76606A407800282E
:1028B00008BF70BDD5E92010491C40F10000C5E9F2
:1028C000201070BD207940F01000207170BD000014
:1028D000D00000209400002003480078002808BFA2
:1028E0007047FFF763BF0000940000202DE9F0411E
:1028F000DFF8AC800746A8F13C04D8F80450E06A41
:10290000606295F8CB10207A05F1A80600291CBF5B
:10291000001DC0B22249002F496891F86F1002BF14
:10292000FF2895F86E20914201D00EF0CDF896F870
:102930002300A8B1206B0DF063FE98F8000000287A
:102940000CBF0120002080F0010116480176D6E975
:102950002012C0E90412216B606A0DF02DF804E02A
:10296000606A0DF04DFE0DF087F83FB995F86F00E5
:1029700010F00C0018BF28200DF07EFC686941F6AD
:102980004C51884295F86E204FF0000134BF012071
:1029900000200EF00DF802202070BDE8F08100004C
:1029A000D0000020A01800202DE9F04FDFF8F4A19E
:1029B00083B0AAF11C09DAF804504FF000088DF832
:1029C0000080A9F1200495F8CB10227A05F1A80621
:1029D00000291CBF111DCAB272490028496891F82C
:1029E0006E1002BFFF2A95F86F00884203D04FF0A7
:1029F000FF000EF069F8B07DDFF8ACB1012750B1EF
:102A0000012830D0022841D003284FD040F2FF21C6
:102A10002720FEF739F9A079ADF80400A5F8540095
:102A20004846FFF7E5F8A0B1A289216A42F080028A
:102A3000A2816269802090477774D9F80000C0783D
:102A40001B283CD14FF0010105F110000EF05CFB9A
:102A500035E06A4601A9606B13F090FF206210B167
:102A600096F85D1011B1C4F820B028E09DF8001070
:102A700031B9A0F8008080F80280012115F090F8AB
:102A8000BDF80410206A15F00DF818E0B5F85400F0
:102A9000ADF804006A4601A9606B13F06FFF206275
:102AA00068B940F2E9212720FEF7EEF84846FFF723
:102AB0009FF868B3D9F80000C0781B28C2D0206AFC
:102AC0004FF008034FF00309017801F0F70101709E
:102AD000F27D03EAC20241EA020101F0FB0101704A
:102AE000327E4FF0040303EA820241EA020101F060
:102AF000EF01017039EA010104BFC078022815D046
:102B0000606B13F015FF002818BFB84605D00DE024
:102B100040F2F2212720FEF7B7F8206A007839EA60
:102B2000000003D0FFF722F880F00108206A017846
:102B300041EA0811017096F8221000291CBF417863
:102B4000002913D0206B0DF05BFD9AF800000028DF
:102B50000CBF0121002115480176D6E91E12C0E9FB
:102B60000412216A206B0CF027FF03E00DF048FDF2
:102B70000CF082FF686941F64C51884295F86F204D
:102B80004FF0010134BF012000200DF011FFE7706C
:102B9000206A018821828078A074277003B0BDE884
:102BA000F08F0000D0000020C8180020A0180020DE
:102BB000092800008123000095260000D928000084
:102BC0000246074810B5007838B10648817821B12F
:102BD000C01C0CF09DFD012010BD002010BD0000A8
:102BE0000404002082220020004870475524002061
:102BF0002DE9F041124C00263546A07800288CBF04
:102C0000104FBDE8F081601990F83B2190F8031156
:102C1000012A02D090F84B0158B104EBC100BD5518
:102C200090F8532100F5AA713046731CDEB20EF005
:102C3000CFFA681CC5B2A078A842E4D8BDE8F081FC
:102C4000822200200804002004498A78824286BF3C
:102C5000084490F8430100207047000082220020C1
:102C600004498A78824286BF01EB0010833000203D
:102C70007047000082220020054A01EB410102EB6F
:102C800041010268C1F80B218088A1F80F0170474B
:102C9000822200202DE9F041134C06460025A07841
:102CA000002898BFBDE8F081C0B2A84214D904EB57
:102CB0000510833010D0611991F8431161B905EB0B
:102CC000450104EB410707F20B11324614F0B1F94C
:102CD000B7F80F01A7F80F01681CC5B2A078A84289
:102CE000E2D8BDE8F08100008222002004498A7801
:102CF000824286BF01EB0010C01C0020704700001C
:102D00008222002008498A78824203D90A1892F860
:102D100043210AB10020704700EB400001EB400066
:102D200000F20B10704700008222002010B540F224
:102D3000D3120021074818F01EFA0822FF21064886
:102D400018F019FA05480021017041704FF46171C3
:102D5000418010BD822200200804002004040020CD
:102D600070B50C4605460CF04FFF0CF0E9FC0A4824
:102D70002A46007868B1094B997851B1002C0CBFF4
:102D800003F18300D81C0CF0C3FC0CF003FD012000
:102D900070BD002070BD00000404002082220020CD
:102DA0000B4B93F802C084459CBF00207047184429
:102DB00090F8030103EBC00090F853310B70D0F88A
:102DC00054111160B0F85801908001207047000044
:102DD0008222002007498A7882429CBF00207047E7
:102DE000084490F8030101EBC00090F85A0100F08C
:102DF000010070478222002010B500F077F91028FA
:102E000014D00B4A0146002092F802C0BCF1000F1A
:102E10000CD9131893F803318B4203D1102818BF33
:102E200010BD03E0401CC0B28445F2D8082010BD9C
:102E3000822200200246064810B500EB0110012155
:102E400083300CF065FCBDE810400CF0A3BC000022
:102E500082220020014840887047000004040020BE
:102E60002DE9F0411746012500221E462C463A70F6
:102E700000F03CF9102827D0184901EBC00292F865
:102E80005A2102F001023A708B780022002B1BD9E4
:102E900001EB020C9CF803C1844519D1102A13D010
:102EA000002E18BF3270887890420DD901EB0210C5
:102EB00010F1030F08D0881890F84B4190F83B01AF
:102EC00001280CBF0125002545EA0400BDE8F0817A
:102ED000521CD2B29342DBD8F6E7000082220020D7
:102EE00006498A78824206D9084490F83B010028B6
:102EF00004BF01207047002070470000822200209C
:102F000070B50D46044600F0F1F81A4A102814D0A6
:102F100002EBC00191F85A0110F0010F1CBF012013
:102F200070BD507808283CBF012081F85A011ED29C
:102F30005078401C5070012070BD5078082816D27F
:102F400013780120591C1170102B03D3462128201F
:102F5000FDF79AFE02EBC3032968C3F85411A98850
:102F6000A3F8581183F8534183F85A01E0E7002091
:102F700070BD0000822200200148407870470000A8
:102F80000404002001494870704700000404002038
:102F900070B42B4800250178491E4BB2002B46DB4C
:102FA00000EBC30191F85A1111F0010F3BD04278A8
:102FB000D9B2521E427000EBC10282F85A5190F809
:102FC00002C00022BCF1000F0BD9841894F80361F1
:102FD0008E4202D1102A26D103E0521CD2B294456F
:102FE000F3D80278521ED2B202708A421BD000EB94
:102FF000C20200EBC10CD2F85341CCF85341D2F8D5
:103000005721CCF85721847890F800C00022002C7A
:1030100009D9861896F8036166450CD1102A1CBFA1
:10302000024482F80311591E4BB2002BB8DA05484E
:10303000457070BC7047521CD2B29442E9D8F2E796
:1030400082220020040400202DE9F041254D0026B5
:103050003446287800288CBF234FBDE8F08100BF9C
:1030600005EBC40090F85A1111F0010F32D0AA7884
:1030700000212346002A09D905EB010C9CF803C165
:103080009C4504D0491CC9B28A42F5D810218A4215
:1030900086BF05EB0112D31C0023002210290CD09F
:1030A00005EB010C9CF83B81B8F1010F04D09CF8B2
:1030B0004BC1BCF1000F00D00122521E134209D1B6
:1030C000B95590F8532100F5AA713046731CDEB251
:1030D0000EF07EF8601CC4B22878A042C0D8BDE8CB
:1030E000F081000082220020080400202DE9F00F6A
:1030F000204B0246002093F80080B8F1000F34D92D
:103100000F784E788D78CC7891F804C091F805A0AE
:1031100003EBC00191F8539191F854B182EA090987
:1031200087EA0B0BD94491F855B186EA0B0BD944C9
:1031300091F856B185EA0B0BD94491F857B184EA5E
:103140000B0BD94491F858B191F859118CEA0B0B3B
:10315000D9448AEA010111EB090F04BFBDE8F00F61
:103160007047401CC0B28045D2D8BDE8F00F102097
:103170007047000082220020254910B44A7801EBF4
:10318000C003521E4A70002283F85A2191F802C0EF
:10319000BCF1000F0DD98B1893F80341844204D180
:1031A000102A1CBF10BC704703E0521CD2B29445D9
:1031B000F1D80A78521ED2B20A70824204BF10BC03
:1031C000704701EBC00301EBC202D2F853C1C3F850
:1031D00053C1D2F85721C3F857218C7891F800C019
:1031E0000022002C9CBF10BC70478B1893F8033151
:1031F000634506D1102A1CBF114481F8030110BC9D
:103200007047521CD2B29442EFD810BC70470000F5
:103210008222002070B58CB000F110041D461646C5
:103220000DF1FF3C5FF0080014F8012C8CF8012030
:1032300014F8022D0CF8022F401EF5D101F1100CEC
:103240006C460DF10F0108201CF8012C4A701CF887
:10325000022D01F8022F401EF6D1204613F0A7FEE2
:103260007EB16A1E04F130005FF0080110F8013CE5
:10327000537010F8023D02F8023F491EF6D10CB01F
:1032800070BD08982860099868600A98A8600B9833
:10329000E8600CB070BD000070B50446012679B13D
:1032A000584A0025012931D002297AD0032918BFB4
:1032B00070BD04F1CE01BDE87040CD3014F00AB904
:1032C0004FF48162002117F056FF84F8CD604E4A1A
:1032D000C4F816210722C4F81A2194F81621FE20FA
:1032E00022F0040284F8162184F84E017F2084F82D
:1032F000C100464804F1A801C4F8B0000020C1E9AB
:1033000000004FF6FF70A4F8560170BDA4F81653E4
:1033100084F80B5360693E49B2FBF0F20144B1FB03
:10332000F0F1C4F8EC1040F6B831A4F8F010E38BDB
:10333000A4F8F650B4F8FAC0521C0CFB00FCBCFB1D
:10334000F0FCA4F8FAC040F2712C03FB0CF300EB84
:1033500003135B1EB3FBF0F3A4F8F830A4F8FE20CF
:103360002C4A04F1A80100EB0212521EB2FBF0F24B
:103370004A640A6C4243B2FBF0F008642631481EEE
:1033800014F0A8F817F00EFE38B1A06900F018FF8D
:10339000002804BF84F8F86270BD84F8F85270BD4C
:1033A000FFE7D4F8DC13B4F8E2C3636904F1A800C2
:1033B000A4F8F650B4F8FA40B2FBF1F25C43B4FB67
:1033C000F1F4A0F8524040F271240CFB04FC01EB34
:1033D0000C1CACF1010CBCFBF1FCA0F850C0521C61
:1033E000A0F85620B0F84820624301EB0212521EAA
:1033F000B2FBF1F24264026C5A43B2FBF1F1016498
:1034000070BD0000005A62022F49043400E0FCFF46
:103410007FC3C901389C1C002DE9F05F044690462B
:103420008A464FF00109084614F094FB05465046C1
:1034300014F092FB074610F0010F18BF01262BD0A5
:1034400015F0010F18BF4FF0010B30D056EA0B00FA
:1034500008BF4FF000090CF023F9384208BF0026DE
:103460000CF01EF9284208BF4FF0000B94F86E00D4
:10347000B0420CBF0020304688F8000094F86F106E
:10348000594508BF4FF0000B88F801B0002808BF6D
:10349000BBF1000F28D118E010F0020F18BF022670
:1034A000CED117F0040F14BF08260026C8E715F088
:1034B000020F18BF4FF0020BC8D115F0040F14BF54
:1034C0004FF0080B4FF0000BC0E7504614F031FBF3
:1034D000B4F8BC10401A00B247F6FE71884201DC15
:1034E000002801DC4FF0000916B1082E10D01FE0B3
:1034F00094F86E00012818BF022819D0042818BFBC
:10350000082805D04FF436714FF00600FDF7BCFBDC
:1035100094F8640101280BD1B4F86801012894F8EB
:103520006E0008D0082803D05FF0080088F800007B
:103530004846BDE8F09F042818BF0420F6D1F3E701
:1035400041F64C5291423DBF0549A1FB0010400994
:1035500040F2E24128BFB0FBF1F080B270470000BA
:103560001F85EB5141F64C5291423DBF0549A1FBED
:103570000010400940F2E24128BFB0FBF1F0C0B2B8
:10358000704700001F85EB5130B40022A1F1010CFF
:10359000BCF1000F12DD431E11F0010F08BF13F83C
:1035A000012F5C785FEA6C0C08D000BF13F8025F53
:1035B00022435C782A43BCF1010CF7D1491E5CBF61
:1035C000405C0243002A0CBF0120002030BC704741
:1035D000074991F9001008441428C4BF142070470B
:1035E00010F17F0FB4BF6FF07E0040B27047000053
:1035F0002604002008B57F208DF8000068460DF0F5
:1036000049FA002804BF9DF9000008BD9DF900108B
:1036100007484078404240B208441428C4BF1420F0
:1036200008BD10F17F0FB4BF6FF07E0040B208BD3F
:103630002604002010B517F00FFA074991F9001081
:1036400008441428C4BF142010BD10F17F0FB4BF6C
:103650006FF07E0040B210BD26040020074908B577
:1036600009788DF800109DF8001000291CBF00207B
:1036700008BD034917F00EFA012008BD28040020F8
:103680002904002010B5054CFF2121700146601C63
:1036900017F000FA0020207010BD00002804002060
:1036A00070B581EA11418BB2C47A83EA020100222B
:1036B00001F0FF0C090A91FAA1F19CFAACFC090E89
:1036C0004FEA1C6C4CEA012101EB011C521C0CEB73
:1036D0000301D2B289B2032AEAD381EA0302DFF8F6
:1036E00088C000216346E2FB0C3109096FF0240316
:1036F00001FB0321C9B200EBD10301F0070C5D7897
:10370000012303FA0CFC15EA0C0F1CBF084670BD20
:1037100004FB02F1090C491CC9B24FF0000C00BFB8
:1037200000EB0C04A2798A4227BF00226478891A30
:10373000C9B20AD303FA02F52C421CBF491EC9B212
:1037400071B1521CD2B2082AF4D30CF1010202F07A
:10375000FF0CBCF1050FE3D39D214620FDF794FA41
:1037600002EBCC00C0B270BD53E4B36E70B504463A
:1037700090F8300008B1252801D9122070BD002A28
:1037800004BF002070BD94F8250010B1012851D06D
:1037900048E094F8320094F831102B4B01FB020002
:1037A00000251A462946E0FB032109096FF024028F
:1037B00001FB0200C0B204EBD00284F8320000F03A
:1037C000070192F82620012303FA01F10A421EBFE5
:1037D00084F83300284670BD94F83010B0FBF1F245
:1037E00001FB1200401CC1B25FF0000004EB000CB2
:1037F0009CF82B208A4227BF00229CF826C0891AF9
:10380000C9B20BD303FA02F61CEA060F1CBF491E0D
:10381000C9B249B1521CD2B2082AF3D3401CC0B27B
:103820000528E3D31F2070BD02EBC00084F83300ED
:10383000284670BDA28A896904F12500FFF730FF90
:1038400084F83300002070BD53E4B36E417841B179
:10385000C0782B2803D2044A105C884201D1012091
:103860007047002070470000E0B2010010B501224F
:10387000C1702B293CBF064A525C06D3FF2904D0F5
:1038800040F275412A20FDF7FFF9427010BD00009B
:10389000E0B201000449897D01F0040108430CBF36
:1038A0000120002070470000EC1C00200348807DB0
:1038B00010F0020F0CBF012000207047EC1C00200C
:1038C0000348807D10F0010F0CBF012000207047DD
:1038D000EC1C002010B5017A81B101291CBF002029
:1038E00010BDC288036880885FF0010100F00CF809
:1038F000002808BF00F06CF8012010BDC2880368E2
:1039000080880221F2E700002DE9F04385B0884667
:1039100099461546064602A913F027FC00284CD10B
:103920000398002D00F1A80404BF012084F82400AE
:1039300043D03046FDF796FE07000CD0294612F022
:10394000CAFF010003D021484088854207D905B04D
:103950000020BDE8F08367212B20FDF795F96A462A
:10396000384612F0B1FF009800260680867094F861
:103970002410002918BF4FF00208414614F010F936
:1039800000982A464946C01C17F07BFB294638465A
:1039900012F056FFA8B19DF8080060B1039890F8A6
:1039A0000A0328B1039880F80A63039814F039FFDA
:1039B0000398A0F8026384F8246005B00120BDE8F4
:1039C000F0837C212B20FDF75FF90000EC1C002028
:1039D00038B51E48007A8DF800009DF800000028D8
:1039E00018BF38BD19481A4A0221037A8DF80030F1
:1039F0009DF8003023B140F217311020FDF744F953
:103A0000426000F108021170EFF3108372B6DFF824
:103A100044C0C0F800C0ACF104014A6852B1127A47
:103A20008DF80020009A00929DF80040012C08BFFC
:103A3000C1F800C00A681060086003B962B60648A1
:103A40000078BDE8384011F079BD0000081D002065
:103A5000C97C0100201D00202E0400202DE9F84F14
:103A6000DFF83893CE4E0127834600257068007A30
:103A70008DF80000009800909DF800102A2908D1C8
:103A800099F8170028B1B9F81800002808BFBDE858
:103A9000F88F4FF0000874682846227A8DF80020CD
:103AA000009A00929DF80030012B08BF2C4610D0E0
:103AB000EFF3108172B62268726001B962B6217AA2
:103AC0008DF80010009900919DF80020002A08BF91
:103AD00038460028DFD11CB3207A8DF800009DF80D
:103AE00000A0AAF10200302880F03981DFE800F060
:103AF0001BA98E2EA082A9FDFCFDFDFDB2FDFB2EB3
:103B0000A082FDFD2EA05C7A5CFDD28282FD2EFD9E
:103B1000FDFAFD2EFB26DFE8F93636363E4CF8DF9F
:103B20000020BDE8F88F626822B94FF4D2711020EE
:103B3000FDF7AAF8594620469047CAE06268002A75
:103B4000F8D140F2AD111020FDF79EF86268002A0E
:103B5000F0D140F2BB111020FDF796F86268002A00
:103B6000E8D140F2C7111020FDF78EF8626832B13B
:103B70002572594620469047002853D00CE040F269
:103B8000CF111020FDF780F8626842B159462046F7
:103B900090472572002872D00820BDE8F88F40F2C7
:103BA000E1111020FDF770F87E480368002B78D0F3
:103BB000606852465946009098479BF800001E28BE
:103BC00005D01B286DD19BF80400002869D000980F
:103BD00004210089FDF78CFB20B34FF40071102005
:103BE000FDF752F86268002AA4D14FF40371102047
:103BF000FDF74AF86C480368002B6AD060685246AB
:103C000059469847BAF11E0F39D062E009F0BAFF61
:103C1000002808BF4FF001085BD062681AB159460E
:103C2000204690472BE040F233211020FDF72CF87E
:103C30006268002A7FF47EAF40F23F211020FDF73A
:103C400023F86268002A7FF475AF40F24B21102000
:103C5000FDF71AF86068A8B104882046FDF702FD58
:103C6000A0B18BF801500F218BF80010ABF8064083
:103C7000ABF808708BF80470002112F0D4FE042019
:103C8000BDE8F88FCE211020FCF7FEFFAE211020FA
:103C9000FCF7FAFF62682AB15946204690474FF078
:103CA000010816E040F263211020FCF7EDFF626886
:103CB000002A7FF43FAF40F26F211020FCF7E4FFB1
:103CC0008BF801501F208BF80000D4F80900CBF8C6
:103CD00004002572BAF1210F46D0BAF1140F05E0A5
:103CE00034E01AE029E03AE005E00DE042D0BAF114
:103CF000220F49D04DE06268002A7FF41BAF40F2EA
:103D000081211020FCF7C0FF6268002A7FF412AF07
:103D100040F296211020FCF7B7FF2448026822B138
:103D2000606828B10088594690470220BDE8F88FA6
:103D300040F29F211020FCF7A7FF6268002A7FF461
:103D4000F9AE4FF42B711020FCF79EFF6268002A39
:103D50007FF4F0AE40F2B7211020FCF795FF40F25F
:103D6000BD211020FCF790FFFFF7A0FD00287FF495
:103D70007DAE0EE09BF80E0000F00100FFF78AFD1B
:103D800000287FF473AE04E0FFF79AFD00287FF46B
:103D90006DAEB8F1000F7FF469AE70E7EC1C002047
:103DA0001C1D0020E0000020DC000020D8000020C6
:103DB0000A4910B508700A48002141618161C1615A
:103DC0000162122217F0D7F90648012100F10C0216
:103DD0001170011D4160016010BD00002E04002023
:103DE000081D00201C1D002038B5037A8DF8003016
:103DF0009DF8003023B140F217311020FCF744FF4A
:103E0000F0B1416000F108010A70EFF3108372B65F
:103E1000DFF844C0C0F800C0ACF104014A6852B1F8
:103E2000127A8DF80020009A00929DF80040012C33
:103E300008BFC1F800C00A681060086033B904E028
:103E400040F2E2211020FCF71FFF62B60348007821
:103E5000BDE8384011F072BB201D00202E04002068
:103E6000094810B5002141618161C16101621222DE
:103E700017F081F90548012200F10C010A70011DBB
:103E80004160016010BD0000081D00201C1D0020C5
:103E90000249014808607047153F0000D800002023
:103EA00038B5037A8DF800309DF80030002B18BF2C
:103EB00038BDF0B1416000F108010A70EFF31083E2
:103EC00072B6DFF848C0C0F800C0ACF104014A681F
:103ED00052B1127A8DF80020009A00929DF80040AD
:103EE000012C08BFC1F800C00A681060086033B92F
:103EF00004E040F2E2211020FCF7C6FE62B604485E
:103F00000078BDE8384011F019BB0000201D0020EA
:103F10002E04002038B50C0016D0A080002161725C
:103F2000FDF78AFB054612F0AFFC010010D06A468F
:103F3000284612F0C9FCE08078B1FB2812D94FF472
:103F400086711020FCF7A0FEFC211020FCF79CFEDF
:103F500040F205111020FCF797FE4FF485711020F8
:103F6000FCF792FE009813F0C4FD012818BF022848
:103F700005D04FF48E714FF01000FCF785FE2072D3
:103F80002068B0B10099E288C91C17F07AF8284679
:103F900012F041FC90B10021284612F044FD90B18E
:103FA0000B48C17D002908BF38BD018B491E018324
:103FB00038BD40F223111020FCF766FE4FF49471D7
:103FC0001020FCF761FE40F22D111020FCF75CFE82
:103FD000EC1C002030B45081B1F808C01346A2F8A0
:103FE0000CC08A89DA8148891882CC895C82CD8D9F
:103FF000A54204BF4C8D844206D10C8E944202BF70
:104000008A8D6245002201D04FF001021A75488561
:10401000588AC88598898885D889088630BC4FF029
:10402000140202491846FFF73BBF0000517E010011
:1040300030B490F86E508C88B1F808C015F00C0FB1
:104040001BD000BFB4F5296F98BF4FF4296490F8D6
:104050006F5015F00C0F17D0BCF5296F98BF4FF4B7
:10406000296C4A88C988A0F84C20A0F85010A0F804
:104070004E40A0F852C030BC7047002B1CBF1578D2
:1040800015F00C0FDED1E2E7002B1CBF527812F0C6
:104090000C0FE1D1E5E7000001480078704700000F
:1040A0002F04002070B5B0F838C012F00C0F0CF1DE
:1040B000040C1FFA8CFC4FF434751CBF05EB8C1CF0
:1040C0001FFA8CFC0FD1012A04BF4FEACC0C0CF173
:1040D000500C06D0022A04BF4FEA8C0C0CF12C0CB9
:1040E00066D11FFA8CFC12F00C0F18BF4FF4296434
:1040F00006D1B0F84E60B0F84A40A64238BF344608
:10410000644538BFA446B0F84040241DA4B213F063
:104110000C0F1CBF05EB8414A5B20AD1012B04BF00
:10412000E400503404D0022B04BFA4002C343FD14F
:10413000A5B213F00C0F18BF4FF4296406D1B0F8E4
:104140005260B0F84840A64238BF3446AC4228BF5F
:104150002C461A48007898B113F00C0F18BF4FF492
:10416000696012D0844228BF2046044612F00C0F2A
:1041700018BF4FF4696012D0844528BF604684465A
:104180000CEB04000844801D70BD012B08BF4FF4E8
:10419000E470E7D0022B08BFE820E3D008E0012A52
:1041A00008BF4FF4E470E7D0022A08BFE820E3D04C
:1041B00040F226210620FCF767FD00002F040020B6
:1041C00070B46FF01F02010C02EA90251F23A1F5C5
:1041D000AA4054381CBFA1F5AA40B0F1550009D03F
:1041E000A1F52850AA381EBFA1F52A40B0F1AA00B7
:1041F000012000D100204FF0000C62464FEA0C0471
:104200008CEA0106F6431643B6F1FF3F11D005F0E4
:1042100001064FEA5C0C4CEAC63C03F0010652086A
:104220006D085B08641C42EAC632162CE8D370BCE9
:10423000704770BC0020704710B50C4C0821204618
:10424000FCF7E0FD2068002804BF60680028F5D076
:10425000074C00BF4FF008012046FCF7D3FD206853
:10426000002804BF60680028F4D010BDE4000020DE
:10427000EC000020094A0A48D2E9001348434B40A9
:1042800083EAB11181EA432111604FEAF0604FEAFD
:10429000F34100EB8000516070470000E400002013
:1042A000BB79379E094A0A48D2E9001348434B407C
:1042B00083EAB11181EA432111604FEAF0604FEACD
:1042C000F34100EB8000516070470000EC000020DB
:1042D000BB79379E70B5A0F1340530F8DC6C174817
:1042E0000C46016800291CBF28468847144801680D
:1042F00000291CBF30468847002060700C212170C7
:104300002071A4F8056095F83D00E0713046FDF796
:1043100093F912F0F0F960B13046FDF719FC002175
:104320003046FCF7E5FF3046BDE870400121FCF760
:10433000DFBF60216320FCF7A7FC0000F400002031
:10434000F800002070B50278002A0CBF0125002576
:1043500040680E1D00F1A8043DB10023A27F19465C
:10436000204612F04DFF20B105E0207B10F0010F38
:1043700001D0012070BD30680E4A31791040C4F878
:104380006E0001F00701C4F872100020A4F85A0072
:104390002DB1012084F85C000420A07708E094F897
:1043A0005C00401C84F85C00E06840F00100E060C4
:1043B000002070BD2F49043710B5041D0BF06AF9B9
:1043C000034A01F0070110402060616010BD000049
:1043D0002F4904372DE9F84303780746002B0CBF1B
:1043E0004FF001084FF000087E6801F1040906F162
:1043F000A80406F5D47596F8C5200721204612F0CA
:10440000FFFE002804BF0120BDE8F88399F80410DE
:10441000D9F80000164A01F007011040C4F86E00F8
:104420000020C4F8721084F858006077B8F1000FCB
:104430001CBF796881F86B0195F868108DF8001041
:104440009DF8001081B93188A5F86A1085F86900D7
:10445000D9F80000E866D9F8040028670822054961
:1044600005F16000FFF7C0FC0020BDE8F883000004
:104470002F490437EB7F010070B540680C1D00F137
:10448000A8050BF007F9064A01F00701104095F85E
:104490006E20024062F307002060616070BD000082
:1044A0002F490437416882B001F5D47091F8102289
:1044B0008DF800209DF80020002A1CBF02B0704734
:1044C0000988A0F86A101A2180F8691008220249A8
:1044D000603002B0FFF788BCEB7F01002DE9F041AE
:1044E00003780E46002B0CBF0127002740680821E7
:1044F00000F1A80490F8C520204612F081FE78B99A
:104500003FB10023A27F1946204612F079FE20B168
:1045100006E0207B10F0020F02D00120BDE8F08100
:1045200094F85F004FF0000510F0020F1BD13046E9
:1045300013F050FB84F86900B6F80500A4F86A008F
:10454000B6F80700A4F86C0094F85F0040F0020091
:1045500084F85F0010F0010F0AD003221B4904F118
:104560006000FFF79DFC94F85F0010F0010F24D16C
:104570008FB10023A27F1946204612F041FE30B1D0
:104580000120A07784F85C00A4F85A5015E0482177
:104590004020FCF779FBE06810F0020F03D04F21B8
:1045A0004020FCF771FB40F00200E06094F85C00F2
:1045B000401C84F85C00A4F85A50607F012804BFB6
:1045C000657784F858500020BDE8F0811D80010017
:1045D000074900F500600013097840B2494249B22A
:1045E000084400F307000028D8BF0020C0B270477D
:1045F000FC0000202DE9F84F4768064607F1A80A9D
:10460000FEF7F8FF054670684FF0000B00F1A804B4
:1046100080F8C1507F2D08BFBDE8F88F94F83300B3
:10462000D6F80490A0764248A1688268C2F580530B
:104630006B43514303EB2131A1604179002937D00D
:10464000716890F9002001F1A808D1F8B01001F5C7
:104650000061091349B2914207DA90F90200494218
:1046600049B2084400F307000AE090F901208A42A9
:104670001EDA90F90300494249B2084400F30700EA
:10468000B0B1D8E900016FF00042514071EA00007A
:104690000ED00FF02BFDD8E90023801A71EB030038
:1046A00006D370683122234900F51D70FFF7F8FB2F
:1046B00094F91B000021281A48BF404299F82D2088
:1046C000824210DCFF2A0ED0207F401CC0B220772F
:1046D00099F82E20904202D8E07E7F2803D1E5761B
:1046E00084F81CB0012197F82C00012818BFBDE800
:1046F000F88F002908BFBDE8F88F706890F8B011F6
:104700008DF800109DF8001000F5D470002918BF36
:10471000BDE8F88F398841819AF8191001739AF829
:104720001A104173BDE8F84F1F220349FFF75CBB25
:10473000FC0000203D470000E98001002DE9F04128
:1047400082B000224A70A0F51D750A70A0F5E674CB
:1047500095F86F0014F064FD8046A0682E4E00F5B9
:104760000060001341B296F90000814207DA96F921
:104770000200494249B2084400F307070DE096F9E8
:1047800001008842A4BF02B0BDE8F08196F90300A1
:10479000494249B2084400F30707002F04BF02B0A2
:1047A000BDE8F0816FF00042D4E90001514071EAA8
:1047B000000004BF02B0BDE8F0810FF097FCD4E91F
:1047C0000023801A71EB03003CBF02B0BDE8F0810A
:1047D0002888694612F0C9FC18B189217A20FCF7B3
:1047E00053FA08F10100C1B202233A46684614F0B8
:1047F00058FD00281CBF02B0BDE8F08130790749A0
:10480000A0FB01560FF072FC40197141C4E9000190
:1048100002B0BDE8F0810000FC00002040420F0023
:104820002DE9F0410446807C002816BF02280020B4
:10483000012084F8680018B3607E68B3D4F81300D0
:10484000C4F86900B4F81700A4F86D00A07C022831
:1048500016BF032801210021A1764FF00800E07661
:1048600094F868004FF001074FF00008012804BFDA
:1048700094F86E2012F0C00F1BD0012811D016E062
:1048800004F169010020FDF703FA0028DED140F2AF
:10489000B9412D20FCF7F8F940F2BD412D20FCF77D
:1048A000F3F994F86E0000F0C000402801D0002019
:1048B00000E00120207731B194F86F0004F170011D
:1048C000FEF79AFAE076FEF7C5FA3749A0FB0165D4
:1048D0000FF00CFC80196941C4E918010026E07E44
:1048E000FEF7BEF90546A07E002818BF002D03D0B4
:1048F000E07EFEF7A9F958B194F8820000281CBFA9
:10490000207F00281DD094F8680001280ED013E005
:1049100084F86870324604F16901284612F089FB78
:10492000E17E04F16900FEF7A7F90AE094F86E0051
:1049300000F0C00040282FD0414604F1690012F079
:1049400067FB84F87680A07810F0040F08BFBDE8FC
:10495000F0810026E07EFEF7C9F9050008BFBDE83A
:10496000F0811021FEF710FE002818BFBDE8F0818D
:1049700084F87670324604F17701284612F059FB2C
:1049800004F17701094CA06812F0FDFFA068BDE8B2
:10499000F041012112F0FEBFFEF726F9324604F184
:1049A000690112F046FBCCE740420F0008010020ED
:1049B000F8B504460D46303013F06DFDB4F802C072
:1049C000CCF3001129B1BDE8F8402822614602F07D
:1049D000CDBCCCF34001002914BFB4F85C60B4F83E
:1049E000546021791D4A4FF47A73082932F8112056
:1049F00002F2E732B2FBF3F708BF40230AD00429E2
:104A000008BF102306D0022907BF0423122208235F
:104A1000192200E0142213FB02F2082908BF4023E8
:104A200019D0042908BF2E2315D0002302290CBF5A
:104A3000182128211944114411FB00716FF07F02E5
:104A400002EBC0100144CDF800C062792B4630461D
:104A500001F062FFF8BD4FF4A871EBE708730000A6
:104A60002DE9F04F80468FB00C46C269D8E90501A8
:104A7000D8E90076D8E903A90592CDE90301D8E980
:104A80000801D8F82820CDE90601089201A813F002
:104A9000ABFDA07A60F31749207860F30707B4F8FC
:104AA0000100ADF800009DF8000000F00101C0F326
:104AB000400241EA4201C0F3800241EA8201C0F3B0
:104AC000C00241EAC201C0F3001241EA0211C0F380
:104AD000401241EA4211C0F3801041EA801B207D60
:104AE0006BF31F47012818BF022803D0032808BF13
:104AF00008200ED1617860F3070611F0100F0FD176
:104B0000A17D012918BF022908D0032908BF082167
:104B100004D040F2EA210620FCF7B6F861F30F2634
:104B2000CAF30741012908D0617A01A813F037FDC3
:104B3000207D012102280FD10BE00421082808BFA5
:104B400061F30706C6F30720082808BF61F30F26A4
:104B5000EAE7607D401CC1B2A07E401CC2B201A841
:104B600013F082FC380C10F0080F4FF0000524D130
:104B700001A813F090FC617811F0100F7FD028226B
:104B8000594602F0F3FB00BF40F2712100F2D92038
:104B9000B0FBF1F000FB01F5D4F8020040F2712205
:104BA000000A4143D4F80500000A50438D4298BFE3
:104BB0000D4602D9854288BF0546A07C60F30F29C7
:104BC000207E012818BF002060F3070AD8F84C00A7
:104BD00012F0EFF88346D8F84C0012F096F98345AE
:104BE00028BF584698B101A90A91390CADF82C108C
:104BF0008DF83460310A8DF835100C950AA902F051
:104C0000D5F8002802BF45200FB0BDE8F08FC8F8E6
:104C10000CA0C8F80070C8E90165DDE90301059A38
:104C2000C8F81090C8F81C20C8E90501DDE90601A4
:104C3000089AC8F82820C8E908010198C8F8300087
:104C4000BDF80800A8F83400E07A002816BF022852
:104C50000020012088F86F00E068C8F87000208A02
:104C6000A8F87400E07D98F8461060F3071188F802
:104C700046100FB04FF00000BDE8F08FFFE703468D
:104C8000F0B221494FF47A72082831F8101001F27D
:104C9000E731B1FBF2F208BF4FF0400C0DD0042811
:104CA00008BF4FF0100C08D0022807BF4FF0040CCB
:104CB00012214FF0080C192100E014211CFB01F116
:104CC000082808BF40251BD0042808BF2E2517D070
:104CD00002280CBF182028202844084410FB032079
:104CE0006FF07F0101EBC3114518FCF78DFD390C06
:104CF0000091C6F307220123294601F00DFE43E788
:104D00004FF4A870E8E7000008730000024901486A
:104D1000C86070475473000008010020114A10B5A4
:104D200000211170104CA060107820B140F22D319C
:104D30002D20FBF7A9FF116051609160D1601161D6
:104D400051619161D16111620AF05EFF0AF0F8FCD5
:104D5000E068002818BF10BD4FF44C712D20FBF700
:104D600093FF00002C1D002008010020024948602C
:104D7000C968096808470000080100200B4910B500
:104D80000878002818BF0C2401D0204610BD00244C
:104D90000C604C608C60CC600C614C618C61CC61AF
:104DA0000C620AF031FF0AF0CBFCEEE72C1D00206C
:104DB000054910B5097801291CBF002010BD01F07C
:104DC0008BFF002010BD00002C1D0020044903486B
:104DD000086005490348086070470000F57000004E
:104DE0001C010020796F0000180100202DE9F0411E
:104DF00004468078C0F3C00058B13C23FF2220460F
:104E0000216A02F03FF811221E4904F18600FEF7E4
:104E1000EBFFA0784FF0000510F0010F20D0206AC2
:104E20003C2607880AF090FBA8B9217884F8BB10CB
:104E3000A4F8BC7084F8BA60607B10B984F8BE50E6
:104E400003E094F8480084F8BE0016220E4904F1ED
:104E5000B000FEF7C9FF012084F88100BDE8F081B1
:104E60004FF6FF773C260AF06FFB0028F3D121783C
:104E700084F8BB10A4F8BC7084F8BA60607B00288A
:104E8000DFD1DBE7E58301007D8301002DE9F843F5
:104E90000D00044616D004F1300013F082FB38B93F
:104EA000A078C0F3C00088B104F1300013F0A4FB77
:104EB00004F1300013F030FB0BF03AFE217925208D
:104EC0000BF002FE94F876104DB904E02046BDE8E0
:104ED000F84301F001BF0022204601F0ADF82E4E4C
:104EE000B068C17811F03F0F14BF01220022017990
:104EF00011F0100118BF0121114214D012F05DFC15
:104F0000074604F1300013F04CFB401CC2B22046AF
:104F100021793B4601F08CFC009003230422694672
:104F2000B06812F027FC1D4F4DB3BD68B06812F099
:104F300044FC804604F1300013F0ADFA814604F1E0
:104F4000300013F02EFBA9EB0000401EC1B2207907
:104F5000424613F056FB0544A078C0F3C00040B1B0
:104F60007868012105442046FFF722FD2844C4F853
:104F700020012279294600200BF090FB30B1B06867
:104F80000BF03EFB06203870BDE8F88340F6D851A0
:104F90002D20FBF779FE0000080100202C1D0020C9
:104FA0002DE9F041734E0F00044627D004F1300084
:104FB00013F0F7FAC0B9A078C0F3C000002838D0C9
:104FC00004F1300013F067FA054604F1300013F0E5
:104FD000E8FA281AC0B213F02FFB71680844706019
:104FE00004F1300013F008FB04F1300013F094FAE0
:104FF0000BF09EFD217925200BF066FD5E4D94F8A7
:1050000076800021A8680180017801F0DF0101703D
:10501000618813292DD011DC102908BF02213DD051
:10502000122908BF062139D040F272612D20FBF70A
:105030002BFE2046BDE8F04101F04EBE152918BFF9
:105040001D29F1D14FF0010112F07BFCA868B8F1E5
:10505000000F017801F0DF0141F02001017013D051
:1050600004F1770112F08FFC0121A86812F092FC84
:1050700016E0002112F065FCA868017801F0DF015C
:1050800041F0200101700BE004F1700112F07BFC93
:1050900094F86F10A86812F07DFC01E012F051FC4A
:1050A000A04604F16901A86812F07DFC98F8681028
:1050B000A86812F07FFC60881D2818BF152805D04D
:1050C00094F85420216DA86812F02BFCA8680BF00E
:1050D00097FA0420307057B36088102823D004F169
:1050E0003000B56813F0D7F9074604F1300013F02B
:1050F00058FA381A401EC0B26188282202F05CF9C2
:105100000544A078C0F3C00030B17068054413F0C6
:1051100097FA2844C4F820012279294600200BF090
:10512000BDFA20B913E0217900200AF05FFE608803
:10513000132815D010DC102808BFBDE8F081122814
:105140000ED000BF40F6BC512D20FBF79DFD40F670
:10515000A8512D20FBF798FD152818BF1D28F1D167
:105160002279BDE8F0414FF001014FF000000BF053
:105170001FBC00002C1D0020080100202DE9F04775
:10518000044682B00E4690F844000BF0D1FC6179E1
:10519000FF200BF099FC8B4D8B4F4FF0000866B150
:1051A00062794FF4A57100200BF0C0FBA07810F0DD
:1051B000030F47D0002E40D044E0A86812F0FDFA5B
:1051C000814694F804A004F1300013F064F9BAF1B8
:1051D000080F04BF4FF4C87140220FD0BAF1040F7A
:1051E00004BF4FF4BF71102208D0BAF1020F07BFFD
:1051F00008F11801042208F12801082209F1050329
:1052000013FB0211BA6800FB0121CA2202EBC01095
:1052100008443861A178C1F3C00111B1796808442C
:1052200038610146627900200BF038FA0028BDD1C0
:1052300040F6F9512D20FBF727FD6279012100206E
:105240000BF0B6FB94F876102046002E7ED06188D5
:105250004646C1F34000002808BF48F0080611F098
:10526000400F18BF46F04006002819BFD4F858A0D8
:10527000B4F85C90D4F850A0B4F85490A868072112
:10528000A0F8008012F05DFB0021A86812F0CBF9B5
:1052900000223146A86812F0CFF916F0080F16D098
:1052A000B4F84500BDF80010022360F30B01ADF81F
:1052B000001094F84600032201099DF8010061F3F3
:1052C00007108DF801006946A86812F053FAA86823
:1052D00012F0F2F9BA89C0F1FE00A9EB0201814295
:1052E000A8BF014601F0FF0802EB080048453ED286
:1052F00046F010010022A86812F09EF9A86812F08A
:10530000DBF9B989C0F1FE00A9EB01018142A8BF18
:10531000014601F0FF08A86812F028FA4044401C3A
:10532000C6B2B4F84800B9684018D4F84011401823
:1053300082B204F1690104F13600FEF7B1F984F894
:105340004400617933460122204600E036E001F056
:105350006FFA0090BDF800009DF80210032340EAA8
:1053600001400190042201A9A86812F003FAA07874
:1053700010F0400F0ED0607994F8441094F910208A
:10538000FEF758F98DF80000012306226946A86847
:1053900012F0F0F9B889424600EB0A01A86812F051
:1053A00008F9B8894044B881A8680BF029F90720AA
:1053B00038700120787002B0BDE8F087012200F05B
:1053C0003BFEF1E7080100202C1D00202DE9F043F1
:1053D0004C4F814683B0387802281CBF38780328A8
:1053E00005D040F62D514FF02D00FBF74DFC464CFB
:1053F0006568287B18B1FEF7FDF885F84700D4F8FA
:1054000008C061684FF000089CF800000A6A00F0CC
:105410000F06002A18BF92F87380B9F1000F53D01D
:1054200001F1690391F86820C0090CF1090111F03C
:10543000C8FD002848D06568052E26D1A06890F8E0
:10544000240000F01F0010281FD9E87BE8B1FF20DE
:105450008DF800006A460521284601F061F990B3F5
:1054600095F8E8008DF804009DF8040058BBA0688A
:105470002222C11C05F1E90015F003FE2522234973
:1054800005F1E000FEF7B0FC1EE04146A06812F016
:105490009DF9C0B13A7860683146022A1CBF3A785B
:1054A000032A05D040F606514FF02D00FBF7ECFB28
:1054B000E2683B7852696FF0070C0CEB8303D2581B
:1054C0009047054601E0FFE70125B87B18B10AF0D7
:1054D0009BFB0AF035F9002D04BF03B0BDE8F08353
:1054E000606813F0BFF838B10AF0D0FBE06880685C
:1054F00003B0BDE8F0430047606803B0BDE8F04387
:1055000001F0EABB2C1D00200801002039840100B5
:1055100030B583B0032902D0052972D06DE004466E
:10552000FF208DF800006A460321204601F0F8F8BC
:10553000002862D0207B374D00283CD09DF8000029
:1055400094F8D6108DF804109DF8041099BB2278B9
:1055500084F8D720FF2811D004F1D902511EFDF79D
:105560001FFC30B194F8D80040F0020184F8D81044
:1055700012E041F208012D20FBF786FBA8680178B4
:10558000C1F3801284F8D820D0F80320C4F8D920C1
:10559000B0F80700A4F8DD0094F947007F2827D071
:1055A00084F8DF007F2184F8471020221A4904F193
:1055B000CE00FEF719FCA86800210180042112F03A
:1055C000C0F904F16901A86812F0EDF994F86810C7
:1055D000A86812F0EFF994F85C20A16DA86812F0A9
:1055E000F2F90E4905200870A8680BF009F80EE0E2
:1055F00040F66C612D20FBF747FB03B0012030BD66
:10560000FFE70749096811B188470028F5D003B0C2
:10561000002030BD080100204F8401002C1D002017
:105620001C0100202DE9F04F83B0032908D0052983
:1056300000F0F48001F050FB03B00020BDE8F08FD3
:105640000446FF208DF800006A460321204601F041
:1056500067F8002800F0DE80207B774E00283CD0E1
:105660009DF8000094F8D6108DF804109DF80410F1
:1056700099BB227884F8D720FF2811D004F1D902F1
:10568000511EFDF78DFB30B194F8D80040F00201B7
:1056900084F8D81012E041F208012D20FBF7F4FA4B
:1056A000B0680178C1F3801284F8D820D0F80320C4
:1056B000C4F8D920B0F80700A4F8DD0094F9470039
:1056C0007F287DD084F8DF007F2184F847102022D6
:1056D0005A4904F1CE00FEF787FBA0782546C0F3B7
:1056E000801A5748BAF1000F4068C0B214BF40F0AA
:1056F000400920F040090021B0680180072112F024
:1057000020F90021B06811F08EFF00224946B068F0
:1057100011F092FF0623002205F16901B06812F032
:1057200029F895F86810B06812F044F9B06811F0E3
:10573000C3FFB5F85C10C0F1FE008142B8BF084657
:10574000C7B2DFF80081B94239D9F81EC7B249F0B3
:10575000100B00225946B06811F06EFFB06812F0CD
:1057600005F83844401C00F0FF09B5F84800D8F8A7
:1057700008104018D5F84011401882B205F16901AF
:1057800005F13600FDF78CFF85F8440069794B463A
:105790000122284601F04CF80190BDF804009DF864
:1057A0000610032340EA01400290042202A9B068D7
:1057B00011F0E0FF00225946B06811F03DFF00E013
:1057C00023E0BAF1000F0ED0687995F8441095F9EE
:1057D0001020FDF72FFF8DF804000123062201A9F8
:1057E000B06811F0C7FF3A46A96DB06811F0E1FE4C
:1057F000A8F80C706179FF200BF066F9082088F892
:105800000000B0680AF0FCFE12E040F66C612D204A
:10581000FBF73AFA204601F05FFA09E00A49096805
:1058200031B18847002802BF012003B0BDE8F08FE6
:10583000002003B0BDE8F08F080100204F84010074
:10584000F87200002C1D002018010020094A0300F6
:10585000506801D001F040BA002908BF7047D168F4
:10586000054A096912786FF00F0303EB8202895829
:1058700008470000080100202C1D00202DE9F04100
:105880000446112218498630FEF7AEFA0522174960
:1058900004F1C000FEF7A8FAB4F8905094F88F60B5
:1058A00009F052FE0027A8B9217884F8BB10A4F8AB
:1058B000BC5084F8BA60607B00281ABF94F8480096
:1058C00084F8BE0084F8BE701622094904F1B000C5
:1058D000FEF78AFA074807702146206ABDE8F041C2
:1058E000022202F035B80000E5830100D5830100F3
:1058F0007D8301002C1D002070B51C4D0121044644
:10590000A970303012F04DFE28B12046BDE870403D
:105910000121FFF7BBBA6088C0F3001109BBA97869
:10592000F9B1B4F85410002908BF10F0010F12D1DA
:1059300010F0020F08BF10F0200F0CD1686920B1E1
:1059400000F1400015F015F828B9A86948B14030B9
:1059500015F00FF828B12046BDE870400021FFF790
:105960000DBC2046BDE8704001F0B6B92C1D0020EA
:1059700070B504464088102810D0114DA87B20B186
:1059800009F01EFF40200AF04DF90E4880680AF029
:1059900037FEA07810F0040F0BD105E02046BDE8DB
:1059A00070400121FFF7FCBA0021227908460AF075
:1059B000FFFF00200AF060FC0220287070BD00008C
:1059C0002C1D00200801002010B5084CB0F85C2008
:1059D000A189914205D00121FFF7D0FB082020705A
:1059E00010BDBDE8104001F077B900002C1D00206B
:1059F00070B504464088214DC0F34001002908BF1E
:105A000010F0010F2AD04FF00001627908460AF029
:105A1000CFFFA078C0F34000002814BF0C20222044
:105A200061790BF051F803202870A87B48B109F088
:105A3000C7FE607910F00C0F0CBF402045200AF023
:105A4000F1F8607910F00C0018BF28200AF014FC5F
:105A50000B488068BDE870400AF0D2BDA889B4F850
:105A60005410884204D12046BDE8704001F034B99A
:105A70002046BDE870400121FFF780BB2C1D0020AF
:105A80000801002070B51C4C6568287B18B1FDF733
:105A9000B1FD85F84700194DA87B18B10AF0B4F89C
:105AA00009F04EFE606812F0DDFDA8B16068418823
:105AB000C1F30012002A04BFC1F3C00100290BD0BA
:105AC000297802291CBF297803290AD040F63741DA
:105AD0004FF02D00FBF7D8F86068BDE8704001F08A
